:020000040000FA
:020000000528D1
:08000800090007309F00831678
:100010000313EB308500FF3086007F3081008312B0
:1000200003130508A1000608A2003C30A0008519B2
:100030001C28A00B17281128851D17280030221E08
:100040000430850085192228851922283C30A0001B
:1000500085192D28A00B28281128851D2828003057
:10006000A21E0430850085193328851933283C30B9
:10007000A00085193E28A00B39281128851D392894
:100080000030221F04308500851944288519442832
:100090003C30A00085194F28A00B4A281128851D47
:1000A0004A280030A21F043085008519552885197B
:1000B00055283C30A00085196028A00B5B2811282A
:1000C000851D5B280030211C0430850085196628B9
:1000D000851966283C30A00085197128A00B6C2872
:1000E0001128851D6C280030A11C0430850085195D
:1000F0007728851977283C30A00085198228A00B25
:100100007D281128851D7D2885018519852885195B
:1001100085283C30A00085199028A00B8B28112839
:10012000851D8B28850185199328851993283C30D6
:10013000A00085199E28A00B99281128851D9928B3
:100140000030221C043085008519A4288519A428B4
:100150003C30A0008519AF28A00BAA281128851DC6
:10016000AA280030A21C043085008519B5288519FD
:10017000B5283C30A0008519C028A00BBB28112849
:10018000851DBB280030221D043085008519C62836
:100190008519C6283C30A0008519D128A00BCC2891
:1001A0001128851DCC280030A21D0430850085193A
:1001B000D7288519D7283C30A0008519E228A00B44
:1001C000DD281128851DDD280030211F0430850021
:1001D0008519E8288519E8283C30A0008519F328FE
:1001E000A00BEE281128851DEE280030A11F043039
:1001F00085008519F9288519F9283C30A000851952
:100200000429A00BFF281128851DFF2885018519C9
:100210000729851907293C30A00085191229A00B50
:100220000D291128851D0D29850185191529851987
:040230001529112853
:02400E00103F61
:00000001FF
