:020000040000FA
:020000000528D1
:08000800090007309F00831678
:100010000313383085000630860083120313003046
:100020004D22A70001304D22A80002304D22A90028
:100030000030AD000030AE000030AF000030B00046
:10004000F830B100FF30B2000230B800B401013026
:100050008500013086005B2285195F28F830A100F9
:10006000A001061D3828A00F3128A10F312899289A
:10007000093086006E22013086006E22851D2C28F4
:10008000380C0339B9005522061655220612B90B51
:1000900043285522F00100303C22F00A00303C2277
:1000A000F00A38083C2286151030B9005522B90BE9
:1000B00056288611B80AB80AB81D40285E280610CE
:1000C0005B2206145B22861C6328FE30A4000430E9
:1000D000A5002430A600850103302D2229082D22F9
:1000E00028082D2227082D2206308500850185004D
:1000F00085018500850185008501850085018500D4
:1001000085018500850185008501A60F7528A50F4D
:100110007528A40F752862220619962801308500DB
:100120008615552286115522552226280130850034
:10013000622209303418103886000822883A031DDC
:100140009D2808223308A13A031926283308B83A13
:1001500003191B293308373A031922293308C93AEE
:10016000031952293308D43A031938293308E23ADB
:1001700003193F293308F53A031990293308983AAF
:100180000319B0293308253A0319462933081F3AC1
:10019000031950293308533A0319D9283308763AFA
:1001A0000319FA2833084E3A0319D7289D28183026
:1001B000FC288501AB302D2200302D2200302D226D
:1001C00000302D22A101A001851AEB28A00FE42800
:1001D000A10FE428F7280830A00081308600013004
:1001E00086000230850000308500A00BED2801302C
:1001F0008500992802304D22BA000830A300A101E1
:10020000A001851E0829A00F0129A10F0129182985
:10021000A101A001851A1129A00F0A29A10F0A29FD
:1002200018290130BA1B81308600BA0DA30BFF28B4
:100230000130860099280822A7000822A800082279
:10024000A9009928341CA3290822D83A031D99280B
:100250000822063A031D992881308600F0012708FC
:100260003C22F00A28083C22F00A29083C2299285E
:100270000822AD000822AE000822AF00992808220B
:10028000B0000822B1000822B20099280822FA3AE8
:10029000031D99280822993A031D99283414992896
:1002A00034109928A601A501A4013008A60231083E
:1002B000031C310FA5023208031C320FA402850172
:1002C00003302D222F082D222E082D222D082D221D
:1002D0007229A101A001851E7229A00F6B29A10F0F
:1002E0006B298D29A101A001851A7B29A00F7429F2
:1002F000A10F74298D290830A000813086000130BB
:1003000086000230850000308500A00B7D29A60FF5
:100310006929A50F6929A40F692901308500992849
:10032000341CA329012281308600850106302D224C
:1003300001308500D5218501D8302D2226220130BB
:100340008500DE2199289130860055228130860073
:1003500055229130860055228130860055229928F9
:10036000341CA32901224030B600A03084000822AA
:100370008000840AB60BB7298130860085010630DB
:100380002D2201308500D521850102302D22262223
:100390004030B600A030840000082D22840AB60B3D
:1003A000CC2901308500DE219928850105302D22D8
:1003B000F321B31CD82901308500080085010530E0
:1003C0002D22A101F321331CF029A001A00BE62965
:1003D000A10FE229B70A8130371891308600E2294F
:1003E000013085000800B3010830A3000310B30DED
:1003F000051A3314023085008501A30BF629330852
:1004000008000822AA000822AB000822AC0008005D
:100410000830A300B501B3010310B30DA001851A84
:10042000172AA00F0F2A3514FF30B30008008618D2
:100430003314A001851E222AA00F1A2A3514FF307A
:10044000B3000800A30B0C2A330808002C082D2247
:100450002B082D222A082D220800A0000830A30016
:100460000030A00D03184030850002388500FD39AA
:100470008500A30B302A0800831603139A00700826
:100480009B001C1555309D00AA309D009C149C18A3
:10049000472A1C11831203130800831603139B00C1
:1004A0001C141A088312031308000530A2005B22F3
:1004B000A20B572A0800A101A001A00F5D2AA10FDD
:1004C0005D2A0800A001A00B632A08000630A100E5
:1004D000A001A00F692AA10B692A08008030A100A1
:1004E000A00106190800A00F712AA10F712A0800A7
:02400E00033F6E
:06420000000000000200B6
:00000001FF
