:020000040000FA
:020000000528D1
:08000800090007309F00831678
:100010000313203085004E30860083120313113005
:10002000850021308600DE30BC00FB30BB00E122C1
:100030000030B322A7000130B322A8000230B3225F
:10004000A9000030AD000030AE000030AF0000303D
:10005000B000F830B100FF30B2000230B800B40197
:100060001130850021308600C122061B6E28F83031
:10007000A100A001061D4128A00F3A28A10F3A288F
:10008000C02831308600D72221308600D722061FB3
:1000900035286820380C0739B900BB220616BB2268
:1000A0000612B90B4D286820061F5D28B80AB80A49
:1000B000381E4A280230B8004A28F0010030A22237
:1000C000F00A0030A222F00A3808A2220616672899
:1000D0001430B900BB22B90B6A2808000610C122EF
:1000E0000614C122861C7228FE30A4000430A5002C
:1000F0002430A60010308500033093222908932273
:100100002808932227089322163085001030850096
:1001100016308500103085001630850010308500BF
:1001200016308500103085001630850010308500AF
:10013000163085001030850016308500103085009F
:100140001630850010308500A60F8428A50F84285E
:10015000A40F8428C9220619B52811308500061677
:10016000BB220612BB22BB222F284A22BB004A22F6
:10017000BC003B05FF3A031DE12211308500C92276
:10018000313086006222883A031DC2286222330879
:10019000A13A03192F283308B83A0319572933080D
:1001A000373A03195E293308C93A03198E293308EF
:1001B000D43A031974293308E23A03197B29330826
:1001C000F53A0319CD293308983A0319F029330871
:1001D000253A0319822933081F3A03198C29330859
:1001E000533A031908293308763A03192A293308A0
:1001F0004E3A0319062933086C3A03190029C2281C
:100200006222BB006222BC00E122C02826302C29D9
:1002100010308500AB3093220030932200309322BF
:1002200000309322A101A001851A1B29A00F1429D7
:10023000A10F142927290830A000A1308600213001
:1002400086001230850010308500A00B1D2911306A
:100250008500C0280230B322BA000830A300A101F3
:10026000A001851E3829A00F3129A10F3129542959
:10027000A101A001851A4129A00F3A29A10F3A290D
:1002800054292130BA1BA1308600BA0DA30B2F29A7
:10029000A101A001851E5129A00F4A29A10F4A29B9
:1002A0005429A001A00F522921308600C0286222C3
:1002B000A7006222A8006222A900C028341CE329FA
:1002C0006222D83A031DC0286222063A031DC028C4
:1002D000A1308600F0012708A222F00A2808A222F5
:1002E000F00A2908A222C0286222AD006222AE00D4
:1002F0006222AF00C0286222B0006222B1006222F6
:10030000B200C0286222FA3A031DC0286222993A3C
:10031000031DC0283414C0283410C028A601A5012C
:10032000A4013008A6023108031C310FA5023208CF
:10033000031C320FA40210308500033093222F08D3
:1003400093222E0893222D089322AF29A101A00108
:10035000851EAF29A00FA829A10FA829CA29A1018C
:10036000A001851AB829A00FB129A10FB129CA2966
:100370000830A000B13086002130860012308500A0
:1003800010308500A00BBA29A60FA629A50FA62913
:10039000A40FA62911308500C028341CE3295B2254
:1003A000A130860010308500063093221130850080
:1003B000242210308500D83093228C221130850001
:1003C0003222BB22C028A1308600BB22B130860079
:1003D000BB22A1308600BB22B1308600BB22C028E0
:1003E000341CE3295B224030B600A0308400622236
:1003F0003518192A8000840AB60BF729A130860027
:1004000010308500063093221130850024221030F0
:100410008500023093228C224030B600A030840048
:1004200000089322840AB60B102A1130850032226C
:10043000C0280A30B700A1308600BB22B130860048
:10044000BB22B70B1B2AC0280000000000000000E0
:1004500010308500053093224A22B31C2C2A11301B
:1004600085000800A001A00F332A10308500053058
:100470009322A130A119B13086004A22331C442AAC
:10048000A00F392AA10A392A4A223318392A1130F1
:1004900085000800B3010830A3000310B30D8619CE
:1004A0003314123085000000000010308500A30BCB
:1004B0004D2A330808006222AA006222AB006222A1
:1004C000AC0008000830A300B501B3010310B30D60
:1004D0000000000000000000A001851A752AA00F8E
:1004E0006D2A3514FF30B300080000000000000042
:1004F0000000861833140000000000000000A00176
:10050000851E882AA00F802A3514FF30B30008000A
:10051000A30B662A330808002C0893222B08932289
:100520002A0893220800A0000830A3001030A00D74
:1005300003180838850002388500023A8500A30BAD
:10054000962A0800831603139A0070089B001C1556
:1005500055309D00AA309D009C149C18AD2A1C119A
:10056000831203130800831603139B001C141A083C
:100570008312031308000530A200C122A20BBD2A7A
:100580000800A101A0010000A00FC32AA10FC32AE7
:100590000800A0010000A00BCA2A08000530A10035
:1005A000A0010000A00FD12AA10BD12A0800A03081
:1005B000A100A00106190800A00FDA2AA10BDA2A6F
:1005C0000800EA222E30F3223C08F3223B08F322F3
:1005D0001023080011308500213086001F230130D0
:1005E00085001F230800A0000830A300013086000A
:1005F0001F231130A00D031C0130850000000000F6
:1006000000000000213086001F23A30BF62A0130D2
:100610008600113085001F23213086001F2308002B
:10062000013086001F23013085000000000000001B
:100630000000213086001F231130850008000A3099
:08064000A100A10B212B080011
:02400E00023F6F
:06420000000000000200B6
:00000001FF
