:020000040000FA
:020000000528D1
:08000800090007309F00831678
:100010000313203085004E30860083120313113005
:10002000850021308600E6230030AD000030AE00B0
:100030000030AF000030B000F830B100FF30B20047
:100040000230B800BC01BF01C001B401113085000D
:1000500021308600552375230130A200061B7C2821
:10006000F830A100A001061D3A28A00F3328A10FE7
:100070003328C728313086006B23213086006B235C
:1000800022184928061B30284F23061F45285523D0
:100090004D28061F3028A20130284F234F234F231D
:1000A0004F23380C0739B9004F2306164F23061289
:1000B000B90B54287020013A03196528B80AB80A08
:1000C000381E51280230B8005128F0010030362384
:1000D000F00A00303623F00A3808362306166F2857
:1000E0001430B9000530A200061F01345523A20BBD
:1000F0007428B90B722800344014061055230614D6
:100100005523861C8128FE30A4000430A50024302D
:10011000A60010308500033027232908272328084C
:100120002723270827231630850010308500163036
:10013000850010308500163085001030850016309F
:10014000850010308500163085001030850016308F
:10015000850010308500163085001030850016307F
:10016000850010308500A60F9328A50F9328A40FB3
:1001700093285D230619C4281130850006164F23E5
:1001800006124F234F232528113085005D2331307F
:1001900086009522883A031D0B2995223308A13A3F
:1001A000031925283308B83A03194C293308373A7C
:1001B000031953293308C93A031983293308D43A58
:1001C000031969293308E23A031970293308F53A0B
:1001D0000319C2293308983A0319E9293308253A43
:1001E0000319772933081F3A031981293308533A31
:1001F000031926293308763A0319482933084E3A59
:100200000319232933086C3A0319942B33088F3AC6
:1002100003191A29C928401CC928A201061BC9288C
:10022000A20F0E29213086004F23061F15294F23C8
:10023000E6237C28E023053027237D22B300E32337
:100240003308EF22C7283730EF22C7281030850047
:10025000AB3027230030272300302723003027230B
:10026000A101A001851A3929A00F3229A10F322935
:1002700045290830A000A1308600213086001230C8
:10028000850010308500A00B3B2911308500C72860
:1002900002304723EF22C7289522A7009522A80005
:1002A0009522A900C728341CDC299522D83A031DC1
:1002B000C7289522063A031DC728A1308600F00101
:1002C00027083623F00A28083623F00A290836239F
:1002D000C7289522AD009522AE009522AF00C72811
:1002E0009522B0009522B1009522B200C728952230
:1002F000FA3A031DC7289522993A031DC7283414DA
:10030000C7283410C728A601A501A4013008A602F9
:100310003108031C310FA5023208031C320FA4025E
:1003200010308500033027232F0827232E0827238A
:100330002D082723A429A101A001851EA429A00F0F
:100340009D29A10F9D29BF29A101A001851AAD29D1
:10035000A00FA629A10FA629BF290830A000B130FF
:100360008600213086001230850010308500A00BF9
:10037000AF29A60F9B29A50F9B29A40F9B291130FC
:100380008500C728341CDC298E22A1308600C623B4
:100390001030850006302723113085004A22351899
:1003A0003F2A10308500D8302723202311308500C4
:1003B00062224F23D323C728A13086004F23B130B8
:1003C00086004F23A13086004F23B13086004F2393
:1003D000C728341CDC29BF0A2130BF183130860001
:1003E0008E224030B600A0308400952235183F2A76
:1003F0008000840AB60BF529A130BF18B130860001
:100400003C18972B103085000630272311308500CB
:100410004A2235183F2A1030850002302723202336
:100420004030B600A030840000082723840AB60BB1
:10043000142A11308500622235183F2A10308500B9
:100440000330272320234030B600A03084007D22D3
:1004500000083306031D322A840AB60B272A1130FE
:100460008500C7280530B700A13086004F23B13082
:1004700086004F23B70B342A11308500C7280A3075
:10048000B700A13086004F23B13086004F23B70B51
:10049000412AC728B501A1308600103085000530FB
:1004A0002723A001A1010A30A2007D22B3185F2AF0
:1004B000A00F552AA10F552AA20B552A3514113029
:1004C00085000800B501A130860010308500053098
:1004D0002723A001A1010A30A2007D22331C7A2A21
:1004E000A00F6D2AA10F6D2AA20B6D2A1130850075
:1004F00035140800113085000800B3010830A3004E
:100500000310B30D8619331412308500000000006B
:1005100010308500A30B802A330808009522AA001A
:100520009522AB009522AC0008000830A300B5016D
:10053000B3010310B30DA001DF223E19A52AA00FBD
:100540009C2A3514FF30B3000800000000000000B2
:10055000000000000000000000000000000000009B
:10056000000000000000000000000000000000008B
:10057000000000000000000000000000CF223E1933
:100580003314A001DF223E1DCB2AA00FC22A35144E
:10059000FF30B3000800A30B992A33080800BE01FE
:1005A0008618BE0A8618BE0A8618BE0A8618BE0AB3
:1005B0008618BE0A8618BE0A8618BE0A0800BE0142
:1005C000851ABE0A851ABE0A851ABE0A851ABE0A8F
:1005D000851ABE0A851ABE0A851ABE0A0800BA0024
:1005E000B5010830A300A101A001851EFC2AA00FBF
:1005F000F52AA10FF52A1C2BA101A001851A052BB4
:10060000A00FFE2AA10FFE2A1C2B2130BA1BA130FD
:100610008600BA0DA30BF32AA101A001851E152B9C
:10062000A00F0E2BA10F0E2B1C2B4030A000A00BF7
:10063000172B213086000800351421308600080071
:100640002C0827232B0827232A0827230800A0008B
:100650000830A3001030A00D0318083885000238B8
:100660008500023A8500A30B2A2B0800831603138A
:100670009A0070089B001C1555309D00AA309D0003
:100680009C149C18412B1C11831203130800831621
:1006900003139B001C141A0883120313080005306F
:1006A000A2005523A20B512B0800A101A0010000BC
:1006B000A00F572BA10F572B0800A0010000A00B83
:1006C0005E2B08000530A100A0010000A00F652BE3
:1006D000A10B652B0800A030A100A001061908009D
:1006E000A00F6E2BA10B6E2B0800E023AB3027234D
:1006F0000030272300302723003027237D22BB0032
:10070000BF3A031D892B7D22BB008B23BB00013028
:10071000BC00E32308003B08413A031914343B08AA
:100720004A3A0319153413343B08EF22C728C6236D
:10073000E02306302723E323E023AD3027232023C3
:10074000A030840000082723840A00082723840A95
:10075000E323622235183F2A1F30B600E023AD3074
:10076000272300082723840A00082723840AE32379
:10077000622235183F2AB60BAE2BE0230430272324
:10078000E323622235183F2AD3231E2A3C1C08008B
:10079000E02306302723E323E02301302723003022
:1007A0002723E32308003C1C0800E023063027230E
:1007B000E323E023013027233C302723E3230800F1
:1007C00010308500080011308500080000304723F4
:1007D000A70001304723A80002304723A9000800E2
:02400E00023F6F
:06420000000000000200B6
:00000001FF
