:020000040001F9
:40000000180E50524F0000010000000000000001CD1F00013E01ED3940AF5BC3140A0021862101110000F001000200EDB0218601011100008001001000EDB021861101011E
:40004000001000EDB0DD210000861620DDE5E11E20E5D5110000000E080608732372231310F9D511F0010019D10D20EDD1E101100000091D20DB01001000DD091520CD2129
:40008000862301DD210000861E0006200E807EA12808DD360040DD360100DD23DD23CB3920EC2310E71D20E2DD210000FC21000006DD2F0021020000DD2F042160FF07DD7D
:4000C0002F0821600100DD2F0C3E00DD77103E00DD7711CD7101013E0CED3940CD710101DD210000FC210000002A8001011101000019228001017CE603672911864301193B
:40010000110000005E2356EB11C0020040197DE607DD7710CB3CCB1DCB3CCB1DCB3CCB1DAF29E5C12A83010111020000AFED523005110004001922830101291186430119D0
:400140005E2356EB11C0020040197DE607DD77117DE6F86F292929292929090100000609DD2F003E1E5BCD200A00FE76C2DC0001C9ED3801CB6F28F9ED3801CB6F20F9C990
:400180000000008100003C3C3C3C3C3C3C3C3C000000000000003C000000000000003C000000000000003C000000000000003C000000000000003C000000000000003C003A
:4001C0000000000000003C3C3C3C3C3C3C3C00000000000000000000000000000000000000000000000000000000000000000000000000000000000000000000000000001F
:400200000000000000003C3C3C3C3C3C3C3C00000000000000000000000000000000000000000000000000003B3B3B3B3B3B003B0E1A2C221A13003B132C322C221A3B0E41
:4002400013222C25221A3C3C3C3C3C3C3C3C0000000000000000000000000000000000000000000000003B3B0000000000000E3B3B0000000000130E3B0000000000130E65
:400280003B3B000000003C3C3C3C3C3C3C3C0000000000000000000000000000000000000000000000000000000000000000000000000000000000000000000000000000E8
:4002C0000000000000003C3C3C3C3C3C3C3C00000000000000000000000000000000000000000000000000000000000000000000000000000000000000000000000000001E
:4003000000000000003B3C3C3C3C3C3C3C3C0000000000000000000000000000000000000000000000000000003B3B3B0000003B3B1F1F153B3B3B1F2828281F1B151F284A
:400340003434342E1F1B3C3C3C3C3C3C3C14000000000000001400000000000000140000000000000014000000000000001400000000000000143B00000000000014153BBE
:400380000000000000143C000000000000003C000000000000003C000000000000003C000000000000003C000000000000003C0000000000003B3C00000000003B2A3C00A9
:4003C000000000003B3A0000003B3B3B000000003B0E133B3B3B00003B1322130E3B0000000B13221A13000000003B3B131A3B3B000000003B3B3A2A3B000000003B3A3AB4
:400400003B0000003B103B0E131A22221A133B3B0E131A130E0D3B3B0E131A130E0D3B3B3B3B3B3B3B3B22252C323332302C3B3B3B3B3B3B3B3B10163B3B3B12183B163BEE
:4004400023412F3B3B2F0E0E0E3B00003B3B3B3B3B3B3B3B3B133B3B3B3B3B0E221A3B07073B13221A132C22221A1A133B3B3B3B3B3B3B3B00003B3B16103B000000412398
:400480003B16103B00003B000000000000000E3B000000000000133B0000000000000B00000000000000000000000000000000003B3B3B000000003B2A3A2A3B0000003BD3
:4004C0003A3A3A3B00000000000000003B1F0000000000003B2800000000003B1F3400000000003B283500000000003B3435000000003B1F3535000000003B2835350000FB
:4005000000003B2835352834353535342E1F3738383735353428383F3F383535342E383F3F383535342E373838373535342E353535353535342E353535353535342E353506
:4005400035353535342E1B153B00000000141F193B00000000141F1B153B00000014281F193B00000014281F1B3B00000014281F1B153B000014281F1B193B000014281F6A
:400580001B193B0000143C00000000003B313C00000000003B313C000000003B3B2A3C0000003B182A313C00003B184141413C003B18414141413C003B31414141413C00D5
:4005C0003B314141414141313B0000003B2A41313B00003B1E41412A3B00003B2A4141411E3B3B3B314141413A2A1E3B314141232A413A3B3141412A1841413B3141412A9F
:400600001641313B31413B23411E3B23411E3B2A413B3B18413B3B1E2F3B3B182F3B1E3B1E18183B16182F1E3B3B3B2A3A3B41414141414141413B1E2A4141414141413BE2
:400640003B3B3B3B3B3B3B2A183B183B00003B23183B1E103B003B1C183B1E163B0018183B1E1E183B3B3B3B1E2F1E183B1E4141412F18183B3A412A1E3B1E183B413B3BD0
:400680003B2A1E163B31003B3141313B0000003B3141313B0000003B2A412A3B3B003B1E4141312A183B2A3A414141414118412A23414141414141182A4141414141411681
:4006C0002A4141414141000000003B283535000000003B2835350000003B3B3B3B3B0000003B272F3A413B00003B272F3A41183B00003B090211313B00003B090211313B9E
:4007000000003B273A41353535353535342E353535353535342E3B3B3B3B3B3B3B3B414141413A2F271E414141413A2F271E1111111111110C021111111111110C024141F6
:4007400041413A2F271E281F1B193B000014281F1B193B0000143B3B3B3B3B3B00141E1C1C18123B00141E1C1C18123B0014030908013B000014030908013B0000141E1C9F
:4007800018123B0000143C003B313A4141413C003B2A3A3A3A3A3C003B18313131313C00003B182323233C0000003B3B3B3B3C000000000000003C000000000000003C006B
:4007C0000000000000003A2A16312A3B1E31312A162A183B3B2A2A233B183B003B1E23183B3B0000003B3B3B00000000003B0000000000000000000000000000003B00003B
:400800000000003B3B3B41413B3B2036203B3A4141183B3B3B3B2F3A3A414141413A1E2A2F2F2F2F2F2F16232A2A2A2A2A233B161E1E1E1E1E1E183B3B10181818163B3BB6
:400840002A3B3B3B3B3B3B3B3A2A1E103B2A183A2A1E163B3B182F2A1E18103B003B2A1E18163B0000001E1816103B0000001816103B00000000103B3B183B0000003B2A68
:400880003B3B3B3B3B0031162A3A4141413A2A162A313A3A3A3A183B232A313131313B3B18232323231800003B3B3B3B3B3B000000000000000000000000000000000000EE
:4008C000000000000000313B0000003B2F3A2A3B0000003B090C183B000000003B093B0000000000003B000000000000000000000000000000000000000000000000000026
:40090000000000000000414141413A2F271E11111111111102030C11111111110209273A41413A271E1C3B273A3A2F1E1C18003B090C1109083B00003B090C093B00000018
:400940003B27411E3B001E1C183B000000140908013B0000001408013B0000000014183B0000000000143B0000000000001400000000000000140000000000000014000043
:400980000000000000143C000000000000003C000000000000003C000000000000003C000000000000003C000000000000003C000000000000003C000000000000003C0043
:4009C000000000000000000000003B204136000000003B363636000000003B2D3A3A000000003B3B3B3B00000000000000000000000000000000000000000000003B000045
:400A0000000000003B0436203B183B00003B3636203B3B00003B3A2D26203B00003B3B3B3B3B3B00003B00000000000000003B00000000000000043B0000003B3B3B0A0A57
:400A40003B003B0A060A183B20364136203B3B2036363636363B20262D3A3A3A2D3B3B3B3B3B3B3B3B3B000000000000000000000000000000003B00000000000000043BEC
:400A80000000000000000000000000000000000000000000000000000000000000000000000000000000000000000000000000000000000000000000000000000000000036
:400AC00000000000000000000000000000000000000000000000000000000000000000000000000000000000000000000000000000000000000000000000000000000000F6
:400B000000000000003B00003B27411E3B0000003B090C093B0000003B090C093B0000003B27411E3B0000003B27411E3B0000003B090C093B00003B3B090C093B3B3B1C69
:400B400027413A271C1200000000000000140000000000000014000000000000001400000000000000140000000000000014000000000000001400000000000000143B3B7C
:400B80000000000000143C000000000000003C000000000000003C000000000000003C000000000000003C000000000000003C000000000000003C0000000000003B3C0006
:400BC000000000003B0F0000000000003B0A0000000000003B060000000000003B0A0000000000003B0400003B3B3B3B3B3B3B3B0F171717143B0F17212117171714172B23
:400C00003C2B21171717060A043B0A06040504050A3B050A3B04053B053B0A3B050A0A3B0A3B3B0A0A04043B0A3B3B3B3B3B3B3B043B0A060A043B3B3B3B3B3B060A140F5A
:400C40003B3B0A0504050A3B000000000000053B000000000000043B0000000000003B0000000000000000000000000000003B000000000000000A3B0000000000000A0459
:400C80003B000000000000000000000000000000000000000000000000000000000000000000000000000000000000000000000000000000000000000000000000000000F9
:400CC0000000000000000000000000003B0900000000003B3B3B0000000000000000000000000000000000000000000000000000000000000000000000000000003B0000C4
:400D00000000003B3B2402111D291D1102093B3B3B3B3B3B3B3B000000000000000000000000003B3B000000003B3B243D3B003B3B243D3E3E3D3B243D2E193D3E3E3D3E80
:400D40003E193D393E3D08013B00000000143B3B3B3B00000014000000000000001400000000000000143B000000000000142E3B0000000000143E2E3B0000000014393EAD
:400D80002E3B000000143C00000000003B173C000000003B0F173C000000003B17173C000000003B17173C000000003B17173C000000003B17173C000000003B17173C0016
:400DC00000003B0F1717213C413C21171717212B3C2B2117171717212121171717171717171717171717171717171717171417171717171714141717171717141414171750
:400E0000171414140F0F17143B3B040A050A17140F3B3B3B3B3B14140F3B0000000014140F3B00000000140F0F3B00000000140F0F3B000000000F0F3B00000000000F0FED
:400E40003B0000000000043B0000000000003B00000000000000000000000000000000000000000000000000000000000000000000000000000000000000000000000000BD
:400E80000000000000000000000000000000000000000000000000000000000000000000000000000000000000000000000000000000000000000000000000000000000032
:400EC0000000000000000000003B3B243D3E00003B243D3E3E3E00003B2E2E2E2E3D00003B242E2E2E2E00003B2E193B242E00003B2E3B2E3D2E00003B2E243D3E2E0000BE
:400F00003B2E2E2E2E2E2E3E3E3D39403E3E393E3D3E3E3E2E3D2E193B242E2E3B2E2E3B2E3D2E2E243D2E243D3E2E2E2E2E2E2E2E2E242E2E2E2E2E2E2E3D2E193B193B29
:400F4000242E2E2E3B2E3E3E3D3B000000143E3E3E243B0000143D2E2E243B0000143E2E2E243B0000142E242E243B0000142E3D2E243B000014242E2E243B0000143D2EAF
:400F80002E243B0000143C0000003B1414143C00003B0F0F0F0F3C003B3B3B3B3B3B3C000000000000003C000000000000003C000000000000003C00000000000000141474
:400FC000141414141414141414140F0F0F0F0F0F0F0F0F0F0F3B3B3B3B3B3B3B3B000000000000000000000000000000000000000000000000000000000000000000141484
:401000001414141414140F3B0000000000003B000000000000000000000000000000000000000000000000000000000000000000000000000000000000000000000014148B
:4010400014141414141400000000000000000000000000000000000000000000000000000000000000000000000000000000000000000000000000000000000000001414D0
:401080001414141414140000000000000000000000000000000000000000000000000000000000000000000000000000000000000000000000000000000000000000141490
:4010C00014141414141400003B2E2E2E2E2E00003B2E19242E2E00003B2E243D2E2E00003B3B3B3B3B3B0000000000000000000000000000000000000000000000001414A5
:401100001414141414143B2E3D2E2E2E243D243D3E2E3D2E2E2E2E2E2E2E2E2E2E243B3B3B3B3B3B3B3B0000000000000000000000000000000000000000000000001414AC
:401140001414141414143E2E2E243B0000142E242E243B0000142E2E2E243B0000143B3B3B3B3B00001400000000000000140000000000000014000000000000001414145B
:401180001414141414143A27272727272707273A27272727070727273A27270707072727273A07070707272727181807070727271818181807072718181818181807070789
:4011C0000707070707073C3C3C3C3C3C3C3C0000000000000000000000000000000000000000000000000000000000000000000000000000000000000000000000000000E5
:401200000000000000003C3C3C3C3C3C3C3C00000000000000000000000000000000000000000000000000000000000000000000000000000D0D000000000D0D2B3100003E
:401240000D0D2B29312B3C3C3C3C3C3C3C3C000000000000000000000000000000000000000000000000000D0D070D000000073C210D000000003C210D0000000000211783
:401280000700000000003C3C3C3C3C3C3C3C000000000000000000000000000000000000000000000000000000000000000000000000000000000000000000000000000047
:4012C0000000000000003C3C3C3C3C3C3C3C00000000000000000000000000000000000000000000000000000000000000000000000000000000000000000000000000000E
:401300000000000000003C3C3C3C3C3C3C3C0000000000000000000000000000000000000000000000000000000000000000000000000000000000000000000000000000CD
:401340000000000000003C3C3C3C3C3C3C1400000000000000140000000000000014000000000000001400000000000000140000000000000014000000000000001400003D
:401380000000000000143C000000000000003C00000000000D0D3C000000000D143C3C000000000D0D173C000000000D27073C000000000D3A0D3C000000000D273A3C0094
:4013C000000000000D070000000000000000000D070D0D0000000D3C3A3C2B0D070D072B170D070D3C3C0D0D0741270D3C310D0D0D3A270D313A0D273A271C0D313C210D62
:40140000070D0D3C313C000D2B3C3C2B2B210D070D070D0D0D0D111D1D1D113C2B211D291D29291D3C3C31313A3A3A313A31312929292929293A313C1D1D1D1D113C313177
:401440001D1D110D0D3C170D0D0000000000170D0700000000000D070D00000000002B210D00000000003C3C2B0D000000003A313C1107000000313A3C1D030D0D073C3131
:40148000291D030D031D000000000000000000000000000000000000000000000000000000000000000000000000000000000D0D070D0D0000001D110C0D00000000311DE6
:4014C0000D0000000000000000000000000000000000000000000000000000000000000000000000003B000000000000003B000000000000003B0000000000000007000027
:4015000000000000000700003B3B3B3B3B3B003B1101090C1D293B1D290101090C1D112929010104091141414141412911110C1D1141030908081111112909080808111D90
:40154000111D080808083B3B3B00000000142929093B00000014293A09093B000014113A0909093B001403032941413B001408081D293A3B001408011111290700140904DA
:4015800009111D3B00143C00000000000D213C000000000D213C3C000000000D2B073C000000000D070D3C000000000D00003C000000000000003C000000000000003C00C0
:4015C0000000000000002B11291D113C31293C2B11291D1D3C3C2B210D111D113C31210D0D081111113C0D00000D030D0D3C000000070D070D0D0000000D0D0D070D0000D5
:40160000000D070D0D0D3C3C3C1D0D2B0D09313C310D3C3C07083C3C3C3C312B0D083C3C3C313C2B0D082B3C3C3C3C2B0D08072B3C3C3C2B0D080D2B3C3C3C2B0D08143C5F
:401640003C2B3C2B0D073C3C1D29030C3C11091D1D1D0C11293C0911111D113C3A3C091111112B3C3C3C090C110C2B3C3C3C090C0C212B2B3C2B09030C2B212B2B0C080385
:40168000212B032B0C111D0D000000000000110D0000000000000D000000000000000D0000000000000007000000000000000D000000000000000D00000000000000070009
:4016C0000000000000000000000000000007000000000000003B000000000000003B000000000000003B000000000000000000000000000000000000000000000000000032
:401700000000000000000811111110080809010811090808090901040903080B080801294101091D2931071129010109112900071D01010B091D00003B07070B073B00006D
:40174000000000000000090801081107001403010101080700140101040801070014310841291D3B00143A0829110700001429081D3B000000143B3B3B00000000140000C8
:401780000000000000143C000000000D00003C000000000D07003C000000000D0D0D3C0000000000070D3C00000000000D0D3C0000000000000D3C000000000000003C00B2
:4017C0000000000000000D000D070D0D070D0D070D0D0D080D17070D0D140D0908210D17071708090921070D1708080817170D0D070808081717070D0D0D080D1707000DFC
:40180000070D0D070D0D213C2B212B2B0D0D2B2B21071721070D2121140D0D140D0D142117170D0D070D21171708080D0D0D17170808080807081707080D080D080D0D0DFA
:401840000D070D070D0708092121090C110C0808172107030C03080D08170D08031707080D080D071717080D08070D0D0D210D070D0D0D070D070D0D0D070D0D0D0D0D0745
:401880000D0D0D00070D0D000000000000000D000000000000000D000000000000000700000000000000170D000000000000210D00000000000007170D00000000000D0D28
:4018C000070D0000000000000000000000000000000000000000000000000000000000000000000000000000000000000000000000000000000000000000000000000000D4
:4019000000000000000000000000000000000000000000000000000000000000000000000000000000000000000000000000000000000000000000000000000000000000A7
:4019400000000000000000000000000000140000000000000014000000000000001400000000000000140000000000000014000000000000001400000000000000140000DB
:401980000000000000143C000000000000003C000000000000003C000000000000003C000000000000003C000000000000003C000000000000003C000000000000003C0033
:4019C0000000000000000000000D0D0D0D070000000000070D0D000000000000000D000000000000000000000000000000000000000000000000000000000000000000007E
:401A00000000000000000D070D0D0D0D0D0D0D0D070D070D070D070D0D0D0D0D0D0D0D14212B21141707000D0717212B21170000000D0708030C00000000000D0D070000D1
:401A40000000000000000D0D070D00000000070D0D000000003B0D07000000003B3B0D0D0000003B3B230D070D003B233B2F080D0D3B3B2F1E3A03083B231E3A2F310D0D5C
:401A80003B2A23313A310D070D0D07000000000000000000000000000000000000003B000000000000003B000000000000001E3B0000000000002A3B0000000000003A233C
:401AC0003B0000000000000000000000000000000000000000000000000000000000000000003B003B000000003B233B233B00003B2327232A23003B23272F2F2F1E003BDE
:401B00002A2F313A27070000000000000000000000000000000000000000000000003B00000000000000233B0000000000003B000000000000003B000000000000000000A4
:401B400000000000000000000000000000140000000000000014000000000000001400000000000000140000000000000014000000000000001400000000000000140000D9
:401B80000000000000143C000000000000003C000000000000003C000000000000003C000000000000003C000000000000003C000000000000003C000000000000003C0031
:401BC00000000000000000000000000000000000000000000000000000000000000000000000000000000000000000000000000000000000000000000000000000000000E5
:401C000000000000000000000000000000000000000000000000000000000000000000000000000000000000000000000000000000000000000000000000000000000000A4
:401C400000000000000000003B232F3A313A0000003B2F313A310000003B2A313A3A0000003B23313A31000000003B3A313A000000003B2F313A000000003B2A313A0000A3
:401C800000003B23313A312A1E3B000000003A312A3B0000003B313A31233B003B233A313A2A1E3B232A313A313A2A233B2A3A313A313A273B23313A313A312F233B313AB3
:401CC0003A313A312F1E3B232A3A312F233B232A3A313A273B002A3A3A31073B3B3B3A313A313B182A23313A313A233B182F2A313A3A3B003B18232A313A3B003B3B3B3B39
:401D000023273B3B18230000000000000000000000000000000000003B3B000000003B3B3B233B3B000031233B3B23123B002F312F233B18123B2A273B3B3B3B123B1607B5
:401D40002A2F2A2F3B2F0000000000000014000000000000001400000000000000140000000000000014000000000000001400000000000000143B000000000000142F3B16
:401D80000000000000143C000000000000003C000000000000003C000000000000003C000000000000003C000000000000003C000000000000003C000000000000003C002F
:401DC00000000000000000000000000000000000000000000000000000000000000000000000000000000000000000000000000000000000000000000000000000000000E3
:401E00000000000000000000000000000000000000000000000000000000000000000000000000000000000000000000000000000000000000000000000000003B3B00002C
:401E400000003B3B232F00000000003B2F3100000000003B2A31000000003B183B2A0000003B1827183B003B3B2327313A273B2327313A313A31232731312F2A162A3A3A4D
:401E8000312F2A1607183A3A313A313A3A2A313A313A3A313A31313A313A313A313A3A313A313A313A313A313A3A313A313A3A3A313A313A3A312F313A313A313A31272F50
:401EC000313A313A312F2A233B3B3B18232A3A2A2A231E2A2A233A312F2A2F3A31233A313A232A3A3A1E313A2A3B12232A233A2F27123B3B232A2F27183B00003B072A181A
:401F00003B0000000000072A3A3A312F2F313B2F31313B3B2F3B3B2F312F3B3B2F3B3B232A2F2A2F3B3B123B2323233B253023123B3B3B251A3B2A233B1A252C30223B3BC4
:401F40003B1A2C30323D3A313B00000000143B2F3B00000000143B313B00000000143B3B3B3B3B3B3B143D3D3D2E30251A143B3B3B073B3B3B142525251A1A070014322C61
:401F80002C251A0700143C000000000000003C000000000000003C000000000000003C000000000000003C000000000000003C000000000000003C000000000000001414CF
:401FC0001414141414140000000000000000000000000000000000000000000000000000000000000000000000000000000000000000000000000000000000000000141441
:402000001414141414140000003B18231E230000003B3B3B3B3B000000000000000000000000000000000000000000000000000000000000003B000000000000003B1414AC
:40204000141414141414183B182316073B3B3B003B3B3B3B3B3B0000003B3B203B0000003B3B203B00003B3B3B30073B3B3B20303D3B3B202C203B3B3B3B003B3B3B1414BB
:40208000141414141414182A2F2A2F2F2A233B3B18231E3B3B3B3B3B3B3B3B0000003B203B0000000000203B0000000000003B000000000000000000000000000000141467
:4020C0001414141414143B3B0000000000000000000000000000000000000000000000000000000000000000000000000000000000000000000000000000000000001414CA
:402100001414141414140000003B25322E3D0000003B1A323D3E000000003B303D3E000000003B303D3D000000003B25322E000000003B1A253000000000003B073B14144E
:402140001414141414142E3030251A0700143D3230251A0700143D3230251A0700142E3030251A07001432302C251A070014302C251907000014073B0707000000141414FC
:402180001414141414140F0F05000D000B00500070009000000017001900600011012E0200020003040444044F045505200506064006660617077707500730085008880852
:4021C0008F0899096009100A3A0A410AAA0A700A500B880BBB0B800BBF0BCC0C4C0C500CAA0C900DDD0D500DEE0E720E950EA20EB40E000FC60FD80FF00FFF0F00006F0F50
:40220000B00FD00FFB0FF60FFF0FFF0FFF0FFF0FFF0FFF0FFF0FFF0FFF0FFF0FFF0FFF0FFF0FFF0FFF0FFF0FFF0FFF0FFF0FFF0FFF0FFF0FFF0FFF0FFF0FFF0FFF0FFF0F69
:40224000FF0FFF0FFF0FFF0FFF0FFF0FFF0FFF0FFF0FFF0FFF0FFF0FFF0FFF0FFF0FFF0FFF0FFF0FFF0FFF0FFF0FFF0FFF0FFF0FFF0FFF0FFF0FFF0FFF0FFF0FFF0FFF0F9E
:40228000FF0FFF0FFF0FFF0FFF0FFF0FFF0FFF0FFF0FFF0FFF0FFF0FFF0FFF0FFF0FFF0FFF0FFF0FFF0FFF0FFF0FFF0FFF0FFF0FFF0FFF0FFF0FFF0FFF0FFF0FFF0FFF0F5E
:4022C000FF0FFF0FFF0FFF0FFF0FFF0FFF0FFF0FFF0FFF0FFF0FFF0FFF0FFF0FFF0FFF0FFF0FFF0FFF0FFF0FFF0FFF0FFF0FFF0FFF0FFF0FFF0FFF0FFF0FFF0FFF0FFF0F1E
:40230000FF0FFF0FFF0FFF0FFF0FFF0FFF0FFF0FFF0FFF0FFF0FFF0FFF0FFF0FFF0FFF0FFF0FFF0FFF0FFF0FFF0FFF0FFF0FFF0FFF0FFF0FFF0FFF0FFF0FFF0FFF0FFF0FDD
:40234000FF0FFF0FFF0FFF0FFF0FFF0FFF0FFF0FFF0FFF0FFF0FFF0FFF0FFF0FFF0FFF0FFF0FFF0FFF0FFF0FFF0FFF0FFF0FFF0FFF0FFF0FFF0FFF0FFF0FFF0FFF0FFF0F9D
:40238000FF0FFF0FFF0FFFFFFFFFFFFFFFFFFFFFFFFFFFFFFFFFFFFFFFFFFFFFFFFFFFFFFFFFFFFFFFFFC00000000000000000000000000000000000000000000000000053
:4023C000000000000001A0000000000000000000000000000000000000000000000000000000000000059000000000000000000000000000000000000000000000000000A7
:402400000000000000098800000000000000000000000000000000000000000000000000000000000011840000000000000000000000000000000000000000000000000076
:4024400000000000002182000000000000000000000000000000000000000000000000000000000000418100000000000000000000000000000000000000000000000000F7
:4024800000000000008180800000000000000000000000000000000000000000000000000000000001018040000000000000000000000000000000000000000000000000D9
:4024C00000000000020180200000000000000000000000000000000000000000000000000000000004018010000000000000000000000000000000000000000000000000A4
:402500000000000008018008000000000000000000000000000000000000000000000000000000001001800400000000000000000000000000000000000000000000000075
:4025400000000000200180020000000000000000000000000000000000000000000000000000000040018001000000000000000000000000000000000000000000000000F6
:4025800000000000800180008000000000000000000000000000000000000000000000000000000100018000400000000000000000000000000000000000000000000000D8
:4025C00000000002000180002000000000000000000000000000000000000000000000000000000400018000100000000000000000000000000000000000000000000000A3
:402600000000000800018000080000000000000000000000000000000000000000000000000000100001800004000000000000000000000000000000000000000000000074
:4026400000000020000180000200000000000000000000000000000000000000000000000000004000018000010000000000000000000000000000000000000000000000F5
:4026800000000080000180000080000000000000000000000000000000000000000000000000010000018000004000000000000000000000000000000000000000000000D7
:4026C00000000200000180000020000000000000000000000000000000000000000000000000040000018000001000000000000000000000000000000000000000000000A2
:402700000000080000018000000800000000000000000000000000000000000000000000000010000001800000040000000000000000000000000000000000000000000073
:4027400000002000000180000002000000000000000000000000000000000000000000000000400000018000000100000000000000000000000000000000000000000000F4
:402780000000800000018000000080000000000000000000000000000000000000000000000100000001800000007FFFFFFFFFFFFFFFFFFFFFFFFFFFFFFFFFFFFFFFFFFFAC
:4027C000FFFE000000018000000020000000000000000000000000000000000000000000000200000001800000002000000000000000000000000000000000000000000098
:402800000002000000018000000020000000000000000000000000000000000000000000000200000001800000002000000000000000000000000000000000000000000052
:402840000002000000018000000020000000000000000000000000000000000000000000000200000001800000002000000000000000000000000000000000000000000012
:4028800000020000000180000000200000000000000000000000000000000000000000000002000000018000000020000000000000000000000000000000000000000000D2
:4028C0000002000000018000000020000000000000000000000000000000000000000000000200000001800000002000000000000000000000000000000000000000000092
:4029000000020000000180000000200000000000000000000000000000000000000000A000020000000180000000200000000000000000000000000000000000000001D0E0
:4029400000020000000180000000200000000000000000000000000000000000000003C8000200000001800000002000000A0000000000000000000000000000000007E451
:4029800000020000000180000000200000170000000000000000000000000000000004040002000000018000000020000027800000000000000000000000000000000FFEFE
:4029C000000200000001800000002000004FC00000000000000000000000000000000FE00002000000018000000020000040400000000000000000000000000000000FD62E
:402A000000020000000180000000200000FFE00000000000000000000000000000000FB5800200000001800000002000000FE00000000000000000000000000000000079C5
:402A400080020000000180000000200000D7E000000000000000000000000000000003FE000200000001800000002000035BE000000000000000000000000000000006791B
:402A8000000200000001800000002000033C00000000000000000000000000000000043B00020000000180000000200000FF800000000000000000000000000000000218B9
:402AC000000200000001800000002000013CC000000000000000000000000000000001BB00020000000180000000200001B840000000000000000000000000000000067761
:402B0000000200000001800000002000003080000000000000000000000000000000070E00020000000180000000200001BB00000000000000000000000000000000038C3F
:402B400000020000000180000000200001DCC0000000000000000000000000000000000000020000000180000000200000E1C00000000000000000000000000000000000D1
:402B800000020000000180000000200000638000000000000000000000000000000000000002000000018000000020000000000000000000000000000000000000000000EC
:402BC000000200000001800000002000000000000000000000000000000000000000000000020000000180000000200000000000000000000000000000000000000000008F
:402C0000000200000001800000002000000000000000000000000000000000000000000000020000000180000000200000000000000000000000000000000000000000004E
:402C4000000200000001800000002000000000000000000000000000000000000000000000020000000180000000200000000000000000000000000000000000000000000E
:402C800000020000000180000000200000000000000000000000000000000000000000000002000000018000000020000000000000000000000000000000000000000000CE
:402CC000000200000001800000002000000000000000000000000000000000000000000000020000000180000000200000000000000000000000000000000000000000008E
:402D0000000200000001800000002000000000000000000000000000000000000000000000020000000180000000200000000000000000000000000000000000000000004D
:402D4000000200000001800000002000000000000000000000000000000000000000000000020000000180000000200000000000000000000000000000000000000000000D
:402D800000020000000180000000200000000000000000000000000000000000000000000002000000018000000020000000000000000000000000000000000000000000CD
:402DC000000200000001800000002000000000000000000000000000000000000000000000020000000180000000200000000000000000000000000000000000000000008D
:402E0000000200000001800000002000000003E00000000000000000000003E0038000000002000000018000000020000000FFE000000000000000000000FFE003C0000082
:402E4000000200000001800000002000000FFFE00000000000000000000FFFC007C00000000200000001800000002000000FFFE000000001C0000000000FFFE387E0000082
:402E8000000200000001800000002000001FFC0000000003C0000000001FFC0787E00000000200000001800000002000001F1E0000000C03C0000000001F1E0787E00000AE
:402EC00000020000000180000000200000103E0000000C03C000000000103E0787E0000000020000000180000000200000003E0000000E05C000000000003E038FA0000032
:402F000000020000000180000000200000003E0000001F018000000000003E030FA0000000020000000180000000200000003C0000001E000000000000003C000F200000B8
:402F400000020000000180000000200000003C00E0035E000400000E00003C000F20700000020000000180000000200000007C01F0077F800E00003C00007C000F60F80001
:402F800000020000000180000000200000007C03F81E7F87CE0800FE00007C0F9F41FC0000020000000180000000200000007C07F83F7F078F9C01FE00007C0F1E43FC00A3
:402FC0000002000000018000000020000000780FF87F3F878F1E07F00000780F1EC7FC000002000000018000000020000000780E78FF3E0F8F3E0FC00000781F1E873C005D
:403000000002000000018000000020000000781E79FC3C0F1F7E1F8E0000781E1E8F3C000002000000018000000020000000781EF1F83C0F1E7E1E1E0000781E3E0F78002E
:403040000002000000018000000020000000F83DE3E03C0F1EFC3C3C0000F81E3C1EF0000002000000018000000020000000F83FC3C0781F1FFC387C0000F83E3C1FE00044
:403080000002000000018000000020000000F87F03FE791E1FFC78FC0000F07C3C1F80000002000000018000000020000000F9FC0BFF7B9E5FBD71FC0000F9FCBC5E040031
:4030C0000002000000018000000020000000FFFC1BFF7B1EDFBF77FC0000FFFDBCDE0C000002000000018000000020000000FFFE783E7F9FDF3F7FBC0000FFFFBFDF3C0027
:403100000002000000018000000020000000FFBFF07E7F1F9F3F7F380000FFBF3FDFF8000002000000018000000020000000FE1FE1FC7E1F8E3E7E780000FE3F3F8FF000C2
:4031400000020000000180000000200000007C0FC3F8781F043C3D7800007C3E1E07E0000002000000018000000020000000380703F0300C00181B78000038180C03800080
:403180000002000000018000000020000000000003E000000000027000000000000000000002000000018000000020000000000003000000000002F000000000000000007F
:4031C0000002000000018000000020000000000000000000000006E000000000000000000002000000018000000020000000000000000000000004E00000000000000000BF
:4032000000020000000180000000200000000000000000000000058000000000000000000002000000018000000020000000000000000000000007000000000000000000BC
:403240000002000000018000000020000000000000000000000007000000000000000000000200000001800000002000000000000000000000000000000000000000000001
:4032800000020000000180000000200000000000000000000000000000000000000000000002000000018000000020000000000000000000000000000000000000000000C8
:4032C0000002000000018000000020000000000000000000000000000000000000000000000200000001800000002000000000000000000000000000000000000000000088
:403300000002000000018000000020000000000000000000000000000000000000000000000200000001800000002000000000000000000000000000000000000000000047
:403340000002000000018000000020000000000000000000000000000000000000000000000200000001800000002000000000000000000000000000000000000000000007
:4033800000020000000180000000200000000000000000000000000000000000000000000002000000018000000020000000000000000000000000000000000000000000C7
:4033C000000200000001800000002000000006000000000000000030000000000000000000020000000180000000200000000F00000000000000007800000000400000008A
:4034000000020000000180000000200000001F0000000000000000F8000000006000000000020000000180000000200000003F0000000000000001F800000000F0000000A7
:4034400000020000000180000000200000007F0400000000000003F820000001F80000000002000000018000000020000000FF0C00000000000007F860000000F80000000D
:403480000002000000018000000020000001FE1E0000000000000FF0F0000000FC0000000002000000018000000020000007FE1E1C00000000003FF0F0E000007C00000004
:4034C000000200000001800000002000000FBE3E1C00000000007DF1F0E000003E000000000200000001800000002000001F3E3E1C0000000000D9F1F0E000003E00000054
:40350000000200000001800000002000000E3E7E3E000000000011F3F1F000001F00000000020000000180000000200000003C7E7E006020000001E3F3F00600CF01C00024
:4035400000020000000180000000200000007CFC7E01E020000003E7E3F01F80CF03E00000020000000180000000200000007CFC7E03E038E00003E7E3F03F81EF87F0002C
:4035800000020000000180000000200000007DFCFE07F03DF00003EFE7F07FC3E78FF000000200000001800000002000000079FCFE0FC07BF80003CFE7F0FFC3E79FF00023
:4035C00000020000000180000000200000007BFDFE1F807BF80003DFEFF1E7C7C79CF0000002000000018000000020000000FFFDFC3F207FF80007FFEFE1C3C787BCF000D9
:403600000002000000018000000020000000FFFFFC3E307E780007FFFFE3C3CF87BDE0000002000000018000000020000000FF7FFC7C78FC780007FBFFE383CF07FBC0006E
:403640000002000000018000000020000000FF7FBC7C70FC780007FBFDE783CF077F80000002000000018000000020000001FE7F3CF8F4F878000FF3F9E7838F0F7E000095
:403680000002000000018000000020000001FE7F3CF9F4F978000FF3F9E7879E0F7810000002000000018000000020000001FC7E7CF3FCF970000FE3F3E7CF1E1E78300040
:4036C0000002000000018000000020000001FCFEFCF6FCF370000FE7F7E7FF1F3C7CF0000002000000018000000020000001F8FCFCFEFCF3E0000FC7E7E7FE0FF87FE000D8
:403700000002000000018000000020000003F0F8F4FCF8F3E0001F87C7A3FC0FF03FC0000002000000018000000020000003F0F8E478F0F3C0001F87C721F807E01F80009D
:403740000002000000018000000020000003E070403060F380001F038200E003800E00000002000000018000000020000003E070400000F000001F03820000000000000031
:403780000002000000018000000020000003C020000000F000001E01000000000000000000020000000180000000200000078000000000F000003C0000000000000000001E
:4037C000000200000001800000002000000380000000007000001C0000000000000000000002000000018000000020000001000000000078000008000000000000000000F3
:4038000000020000000180000000200000000000000000380000000000000000000000000002000000018000000020000000000000000018000000000000000000000000F2
:403840000002000000018000000020000000000000000000000000000000000000000000000200000001800000002000000000000000000000000000000000000000000002
:4038800000020000000180000000200000000000000000000000000000000000000000000002000000018000000020000000000000000000000000000000000000000000C2
:4038C0000002000000018000000020000000000000000000000000000000000000000000000200000001800000002000000000000000000000000000000000000000000082
:403900000002000000018000000020000000000000000000000000000000000000000000000200000001800000002000000000000000000000000000000000000000000041
:403940000002000000018000000020000000000000000000000000000000000000000000000200000001800000002000000000000000000000000000000000000000000001
:4039800000020000000180000000200000000000000000000000000000000000000000000002000000018000000020000000000000000000000000000000000000000000C1
:4039C0000002000000018000000020000000000000000000000000000000000000000000000200000001800000002000000000000000000000000000000000000000000081
:403A00000002000000018000000020000000000000000000000000000000000000000000000200000001800000002000000000000000000000000000000000000000000040
:403A40000002000000018000000020000000000000000000000000000000000000000000000200000001800000002000000000000000000000000000000000000000000000
:403A800000020000000180000000200000000000000000000000000000000000000000000002000000018000000020000000000000000000000000000000000000000000C0
:403AC0000002000000018000000020000000000000000000000000000000000000000000000200000001800000002000000000000000000000000000000000000000000080
:403B000000020000000180000000200000000000000000000000000000000000000000000002000000018000000020000001400000000000000000000000000000000000FE
:403B40000002000000018000000020000002E000000000000000000000000000000000000002000000018000000020000004F0000000000000000000000000000000000029
:403B80000002000000018000000020000009F800000000000000000000000000000000A000020000000180000000200000080800000000000000000000000000000001D03D
:403BC000000200000001800000002000001FFC00000000000000000000000000000003C80002000000018000000020000001FC00000000000000000000000000000007E4B1
:403C0000000200000001800000002000001AFC0000000000000000000000000000000404000200000001800000002000006B7C0000000000000000000000000000000FFE2C
:403C40000002000000018000000020000067800000000000000000000000000000000FE0000200000001800000002000001FF00000000000000000000000000000000FD634
:403C80000002000000018000000020000027980000000000000000000000000000000FB5800200000001800000002000003708000000000000000000000000000000007903
:403CC00080020000000180000000200000061000000000000000000000000000000003FE0002000000018000000020000037600000000000000000000000000000000679D1
:403D0000000200000001800000002000003B98000000000000000000000000000000043B000200000001800000002000001C380000000000000000000000000000000218BD
:403D4000000200000001800000002000000C7000000000000000000000000000000001BB000200000001800000002000000000000000000000000000000000000000067748
:403D8000000200000001800000002000000000000000000000000000000000000000070E000200000001800000002000000000000000000000000000000000000000038C19
:403DC000000200000001800000002000000000000000000000000000000000000000000000020000000180000000200000000000000000000000000000000000000000007D
:403E0000000200000001800000002000000000000000000000000000000000000000000000020000000180000000200000000000000000000000000000000000000000003C
:403E400000020000000180000000200000000000000000000000000000000000000000000002000000018000000020000000000000000000000000000000000000000000FC
:403E800000020000000180000000200000000000000000000000000000000000000000000002000000018000000020000000000000000000000000000000000000000000BC
:403EC000000200000001800000002000000000000000000000000000000000000000000000020000000180000000200000000000000000000000000000000000000000007C
:403F0000000200000001800000002000000000000000000000000000000000000000000000020000000180000000200000000000000000000000000000000000000000003B
:403F4000000200000001800000007FFFFFFFFFFFFFFFFFFFFFFFFFFFFFFFFFFFFFFFFFFFFFFE00000001800000004000000000000000000000000000000000000000000096
:403F800000010000000180000000800000000000000000000000000000000000000000000000800000018000000100000000000000000000000000000000000000000000FD
:403FC0000000400000018000000200000000000000000000000000000000000000000000000020000001800000040000000000000000000000000000000000000000000059
:40400000000010000001800000080000000000000000000000000000000000000000000000000800000180000010000000000000000000000000000000000000000000004E
:4040400000000400000180000020000000000000000000000000000000000000000000000000020000018000004000000000000000000000000000000000000000000000D8
:4040800000000100000180000080000000000000000000000000000000000000000000000000008000018000010000000000000000000000000000000000000000000000FC
:4040C0000000004000018000020000000000000000000000000000000000000000000000000000200001800004000000000000000000000000000000000000000000000058
:40410000000000100001800008000000000000000000000000000000000000000000000000000008000180001000000000000000000000000000000000000000000000004D
:4041400000000004000180002000000000000000000000000000000000000000000000000000000200018000400000000000000000000000000000000000000000000000D7
:4041800000000001000180008000000000000000000000000000000000000000000000000000000080018001000000000000000000000000000000000000000000000000FB
:4041C0000000000040018002000000000000000000000000000000000000000000000000000000002001800400000000000000000000000000000000000000000000000057
:40420000000000001001800800000000000000000000000000000000000000000000000000000000080180100000000000000000000000000000000000000000000000004C
:4042400000000000040180200000000000000000000000000000000000000000000000000000000002018040000000000000000000000000000000000000000000000000D6
:4042800000000000010180800000000000000000000000000000000000000000000000000000000000818100000000000000000000000000000000000000000000000000FA
:4042C0000000000000418200000000000000000000000000000000000000000000000000000000000021840000000000000000000000000000000000000000000000000056
:40430000000000000011880000000000000000000000000000000000000000000000000000000000000990000000000000000000000000000000000000000000000000004B
:40434000000000000005A000000000000000000000000000000000000000000000000000000000000003FFFFFFFFFFFFFFFFFFFFFFFFFFFFFFFFFFFFFFFFFFFFFFFFFFFFAF
:40438000FFFFFFFFFFFF0000040009000D00110016001A001E00220027002B002F00340038003C004100450049004D00520056005A005F00630067006B0070007400780031
:4043C0007C008100850089008D00920096009A009E00A200A700AB00AF00B300B700BB00C000C400C800CC00D000D400D800DD00E100E500E900ED00F100F500F900FD0014
:404400000101050109010D011101150119011D012101250129012D013001340138013C014001440148014B014F01530157015B015E016201660169016D01710174017801AC
:404440007C017F01830187018A018E019101950198019C019F01A301A601AA01AD01B101B401B701BB01BE01C101C501C801CB01CE01D201D501D801DB01DE01E201E501EB
:40448000E801EB01EE01F101F401F701FA01FD0100020302060209020C020F021102140217021A021D021F022202250228022A022D022F023202350237023A023C023F0229
:4044C00041024402460249024B024D02500252025402570259025B025D025F0262026402660268026A026C026E02700272027402760278027A027C027D027F028102830201
:4045000084028602880289028B028D028E0290029102930294029602970299029A029C029D029E029F02A102A202A302A402A602A702A802A902AA02AB02AC02AD02AE02D8
:40454000AF02B002B102B102B202B302B402B502B502B602B702B702B802B902B902BA02BA02BB02BB02BC02BC02BC02BD02BD02BD02BE02BE02BE02BE02BF02BF02BF02DF
:40458000BF02BF02BF02BF02BF02BF02BF02BF02BF02BF02BE02BE02BE02BE02BD02BD02BD02BC02BC02BC02BB02BB02BA02BA02B902B902B802B702B702B602B502B50240
:4045C000B402B302B202B102B102B002AF02AE02AD02AC02AB02AA02A902A802A702A602A402A302A202A1029F029E029D029C029A029902970296029402930291029002FF
:404600008E028D028B028902880286028402830281027F027D027C027A02780276027402720270026E026C026A0268026602640262025F025D025B025902570254025202FA
:4046400050024D024B0249024602440241023F023C023A023702350232022F022D022A022802250222021F021D021A021702140211020F020C020902060203020002FD01FB
:40468000FA01F701F401F101EE01EB01E801E501E201DE01DB01D801D501D201CE01CB01C801C501C101BE01BB01B701B401B101AD01AA01A601A3019F019C0198019501C0
:4046C00091018E018A01870183017F017C017801740171016D016901660162015E015B01570153014F014B014801440140013C013801340130012D012901250121011D0197
:404700001901150111010D01090105010101FD00F900F500F100ED00E900E500E100DD00D800D400D000CC00C800C400C000BC00B700B300AF00AB00A700A2009E009A002D
:40474000960092008D008900850081007C007800740070006B00670063005F005A00560052004D004900450041003C00380034002F002B00270022001E001A0016001100C1
:404780000D00090004000000FCFFF7FFF3FFEFFFEAFFE6FFE2FFDEFFD9FFD5FFD1FFCCFFC8FFC4FFBFFFBBFFB7FFB3FFAEFFAAFFA6FFA1FF9DFF99FF95FF90FF8CFF88FFCD
:4047C00084FF7FFF7BFF77FF73FF6EFF6AFF66FF62FF5EFF59FF55FF51FF4DFF49FF45FF40FF3CFF38FF34FF30FF2CFF28FF23FF1FFF1BFF17FF13FF0FFF0BFF07FF03FF82
:40480000FFFEFBFEF7FEF3FEEFFEEBFEE7FEE3FEDFFEDBFED7FED3FED0FECCFEC8FEC4FEC0FEBCFEB8FEB5FEB1FEADFEA9FEA5FEA2FE9EFE9AFE97FE93FE8FFE8CFE88FE68
:4048400084FE81FE7DFE79FE76FE72FE6FFE6BFE68FE64FE61FE5DFE5AFE56FE53FE4FFE4CFE49FE45FE42FE3FFE3BFE38FE35FE32FE2EFE2BFE28FE25FE22FE1EFE1BFEA9
:4048800018FE15FE12FE0FFE0CFE09FE06FE03FE00FEFDFDFAFDF7FDF4FDF1FDEFFDECFDE9FDE6FDE3FDE1FDDEFDDBFDD8FDD6FDD3FDD1FDCEFDCBFDC9FDC6FDC4FDC1FDEA
:4048C000BFFDBCFDBAFDB7FDB5FDB3FDB0FDAEFDACFDA9FDA7FDA5FDA3FDA1FD9EFD9CFD9AFD98FD96FD94FD92FD90FD8EFD8CFD8AFD88FD86FD84FD83FD81FD7FFD7DFD93
:404900007CFD7AFD78FD77FD75FD73FD72FD70FD6FFD6DFD6CFD6AFD69FD67FD66FD64FD63FD62FD61FD5FFD5EFD5DFD5CFD5AFD59FD58FD57FD56FD55FD54FD53FD52FD3A
:4049400051FD50FD4FFD4FFD4EFD4DFD4CFD4BFD4BFD4AFD49FD49FD48FD47FD47FD46FD46FD45FD45FD44FD44FD44FD43FD43FD43FD42FD42FD42FD42FD41FD41FD41FDB3
:4049800041FD41FD41FD41FD41FD41FD41FD41FD41FD41FD42FD42FD42FD42FD43FD43FD43FD44FD44FD44FD45FD45FD46FD46FD47FD47FD48FD49FD49FD4AFD4BFD4BFDD2
:4049C0004CFD4DFD4EFD4FFD4FFD50FD51FD52FD53FD54FD55FD56FD57FD58FD59FD5AFD5CFD5DFD5EFD5FFD61FD62FD63FD64FD66FD67FD69FD6AFD6CFD6DFD6FFD70FD93
:404A000072FD73FD75FD77FD78FD7AFD7CFD7DFD7FFD81FD83FD84FD86FD88FD8AFD8CFD8EFD90FD92FD94FD96FD98FD9AFD9CFD9EFDA1FDA3FDA5FDA7FDA9FDACFDAEFD16
:404A4000B0FDB3FDB5FDB7FDBAFDBCFDBFFDC1FDC4FDC6FDC9FDCBFDCEFDD1FDD3FDD6FDD8FDDBFDDEFDE1FDE3FDE6FDE9FDECFDEFFDF1FDF4FDF7FDFAFDFDFD00FE03FE94
:404A800006FE09FE0CFE0FFE12FE15FE18FE1BFE1EFE22FE25FE28FE2BFE2EFE32FE35FE38FE3BFE3FFE42FE45FE49FE4CFE4FFE53FE56FE5AFE5DFE61FE64FE68FE6BFE50
:404AC0006FFE72FE76FE79FE7DFE81FE84FE88FE8CFE8FFE93FE97FE9AFE9EFEA2FEA5FEA9FEADFEB1FEB5FEB8FEBCFEC0FEC4FEC8FECCFED0FED3FED7FEDBFEDFFEE3FEF9
:404B0000E7FEEBFEEFFEF3FEF7FEFBFEFFFE03FF07FF0BFF0FFF13FF17FF1BFF1FFF23FF28FF2CFF30FF34FF38FF3CFF40FF44FF49FF4DFF51FF55FF59FF5EFF62FF66FFE1
:404B40006AFF6EFF73FF77FF7BFF7FFF84FF88FF8CFF90FF95FF99FF9DFFA1FFA6FFAAFFAEFFB3FFB7FFBBFFBFFFC4FFC8FFCCFFD1FFD5FFD9FFDEFFE2FFE6FFEAFFEFFFCD
:064B8000F3FFF7FFFCFF4C
:00000001FF
