:020000040000FA
:020000000528D1
:08000800090007309F00831678
:100010000313203085004E30860083120313113005
:1000200085002130860000302F23A70001302F23C8
:10003000A80002302F23A9000030AD000030AE0030
:100040000030AF000030B000F830B100FF30B20037
:100050000230B800BC01BF01B4011130850021306D
:1000600086003D235D23061B6C28F830A100A0010B
:10007000061D3F28A00F3828A10F3828B628313098
:1000800086005323213086005323061F3328662021
:10009000380C0739B9003723061637230612B90B77
:1000A0004B286620061F5B28B80AB80A381E482865
:1000B0000230B8004828F00100301E23F00A00305A
:1000C0001E23F00A38081E23061665281430B900CE
:1000D0003723B90B6828080006103D2306143D237A
:1000E000861C7028FE30A4000430A5002430A60031
:1000F0001030850003300F2329080F2328080F2311
:1001000027080F2316308500103085001630850033
:1001100010308500163085001030850016308500BF
:1001200010308500163085001030850016308500AF
:10013000103085001630850010308500163085009F
:1001400010308500A60F8228A50F8228A40F8228D0
:1001500045230619B32811308500061637230612E9
:10016000372337232C281130850045233130860072
:100170007D22883A031DB8287D223308A13A03194D
:100180002C283308B83A031934293308373A0319AD
:100190003B293308C93A03196B293308D43A0319A8
:1001A00051293308E23A031958293308F53A03195B
:1001B000AA293308983A0319D1293308253A031993
:1001C0005F2933081F3A031969293308533A031981
:1001D0000E293308763A0319302933084E3A0319A9
:1001E0000B2933086C3A0319712B33088F3A031922
:1001F00002293308FF3A0319C32B3308FE3A0319C7
:10020000CF2BB828BD2305300F236522B300C023B0
:100210003308D722B6283530D722B62810308500CB
:10022000AB300F2300300F2300300F2300300F239B
:10023000A101A001851A2129A00F1A29A10F1A29AD
:100240002D290830A000A130860021308600123010
:10025000850010308500A00B232911308500B628B9
:1002600002302F23D722B6287D22A7007D22A800A6
:100270007D22A900B628341CC4297D22D83A031D4A
:10028000B6287D22063A031DB628A1308600F0016B
:1002900027081E23F00A28081E23F00A29081E2317
:1002A000B6287D22AD007D22AE007D22AF00B628AB
:1002B0007D22B0007D22B1007D22B200B6287D22D1
:1002C000FA3A031DB6287D22993A031DB628341444
:1002D000B6283410B628A601A501A4013008A6024C
:1002E0003108031C310FA5023208031C320FA4028F
:1002F0001030850003300F232F080F232E080F2303
:100300002D080F238C29A101A001851E8C29A00F87
:100310008529A10F8529A729A101A001851A952961
:10032000A00F8E29A10F8E29A7290830A000B13077
:100330008600213086001230850010308500A00B29
:100340009729A60F8329A50F8329A40F832911308C
:100350008500B628341CC4297622A1308600A32348
:100360001030850006300F231130850032223518F9
:10037000272A10308500D8300F230823113085003C
:100380004A223723B023B628A13086003723B13064
:1003900086003723A13086003723B130860037230B
:1003A000B628341CC429BF0A2130BF18313086005A
:1003B00076224030B600A03084007D223518272AEE
:1003C0008000840AB60BDD29A130BF18B130860049
:1003D0003C18742B1030850006300F231130850037
:1003E00032223518272A1030850002300F230823C7
:1003F0004030B600A030840000080F23840AB60BFA
:10040000FC29113085004A223518272A1030850032
:1004100003300F2308234030B600A030840065224B
:1004200000083306031D1A2A840AB60B0F2A11305E
:100430008500B6280530B700A13086003723B130DB
:1004400086003723B70B1C2A11308500B6280A30E6
:10045000B700A13086003723B13086003723B70BB1
:10046000292AB628B501A130860010308500053054
:100470000F23A001A1010A30A2006522B318472A68
:10048000A00F3D2AA10F3D2AA20B3D2A35141130A1
:1004900085000800B501A1308600103085000530C8
:1004A0000F23A001A1010A30A2006522331C622A99
:1004B000A00F552AA10F552AA20B552A11308500ED
:1004C00035140800113085000800B3010830A3007E
:1004D0000310B30D8619331412308500000000009C
:1004E00010308500A30B682A330808007D22AA007B
:1004F0007D22AB007D22AC0008000830A300B501CE
:10050000B3010310B30DA001C7223E198D2AA00F1D
:10051000842A3514FF30B3000800000000000000FA
:1005200000000000000000000000000000000000CB
:1005300000000000000000000000000000000000BB
:10054000000000000000000000000000B7223E197B
:100550003314A001C7223E1DB32AA00FAA2A3514C6
:10056000FF30B3000800A30B812A33080800BE0146
:100570008618BE0A8618BE0A8618BE0A8618BE0AE3
:100580008618BE0A8618BE0A8618BE0A0800BE0172
:10059000851ABE0A851ABE0A851ABE0A851ABE0ABF
:1005A000851ABE0A851ABE0A851ABE0A0800BA0054
:1005B000B5010830A300A101A001851EE42AA00F07
:1005C000DD2AA10FDD2A042BA101A001851AED2A45
:1005D000A00FE62AA10FE62A042B2130BA1BA13076
:1005E0008600BA0DA30BDB2AA101A001851EFD2AFE
:1005F000A00FF62AA10FF62A042B4030A000A00B72
:10060000FF2A2130860008003514213086000800BA
:100610002C080F232B080F232A080F230800A00003
:100620000830A3001030A00D0318083885000238E8
:100630008500023A8500A30B122B080083160313D2
:100640009A0070089B001C1555309D00AA309D0033
:100650009C149C18292B1C11831203130800831669
:1006600003139B001C141A0883120313080005309F
:10067000A2003D23A20B392B0800A101A00100001C
:10068000A00F3F2BA10F3F2B0800A0010000A00BE3
:10069000462B08000530A100A0010000A00F4D2B43
:1006A000A10B4D2B0800A030A100A00106190800E5
:1006B000A00F562BA10B562B0800BD23AB300F23E8
:1006C00000300F2300300F2300300F236522BB00C2
:1006D000BF3A031D6F2B1530BB000130BC00C02397
:1006E00008003B08D722B628A323BD2306300F23DA
:1006F000C023BD23AD300F230823A03084000008A1
:100700000F23840A00080F23840AC0234A223518C5
:10071000272A1F30B600BD23AD300F2300080F235A
:10072000840A00080F23840AC0234A223518272A86
:10073000B60B8B2BBD2304300F23C0234A22351860
:10074000272AB023062A3C1C0800BD2306300F23AD
:10075000C023BD2301300F2300300F23C023080026
:100760003C1C0800BD2306300F23C023BD230130ED
:100770000F233C300F23C0230800103085000800F1
:100780001130850008004030B600A03084007D2282
:100790003518272A8000840AB60BC72BB6284030AC
:1007A000B600A03084000008D7223518272A840A12
:0607B000B60BD32BB628A6
:02400E00023F6F
:06420000000000000200B6
:00000001FF
