:020000040000FA
:020000000528D1
:08000800090007309F00831678
:100010000313203085004E30860083120313013015
:1000200085000130860000304A23A70001304A23B2
:10003000A80002304A23A9000030AD000030AE0015
:100040000030AF000030B000F830B100FF30B20037
:10005000B4017B23013086005823061B8D28F8301D
:10006000A100A001061D3928A00F3228A10F3228B7
:10007000C428113086006E23013086006E23061FCF
:100080002D2887207823AB302A2300302A23003004
:100090002A2300302A237A227B230430BB00330832
:1000A000103C031C6028083C03186028093EBB0173
:1000B000BB0A013C031960280310BB0D3B1E5928E5
:1000C0000130B800BC013808B9005223061652238B
:1000D0000612BC0A3C08043A031D7028BC015223D6
:1000E000B90B65288720061F7B28B80A3B0838060D
:1000F000031D62286028F00100303923F00A003027
:100100003923F00A0310380D3923061686281430D7
:10011000B9005223B90B8928080006105823061489
:100120005823861C9128FE30A4000430A5002430FA
:10013000A600782303302A2329082A2328082A2303
:1001400027082A2306308500850185008501850062
:100150008501850085018500850185008501850073
:10016000850185008501A60FA328A50FA328A40F4C
:10017000A3287B2360230619C328061652230612E0
:100180005223522328286023113086009822883A6F
:10019000031DC62898223308A13A031928283308DA
:1001A000B83A03195C293308373A03196929330827
:1001B000C93A0319AD293308D43A031983293308FE
:1001C000E23A031990293308F53A0319EA2933086A
:1001D000983A0319022A3308253A03199D2933084E
:1001E0001F3A0319AB293308533A03193729330847
:1001F000763A0319582933084E3A0319342933083B
:100200008B3A031910293308063A03190C293308CD
:10021000693A03193029C628782305302A23402952
:1002200098223518412A8B3A031D3F2A9822351807
:100230003F2AFC39BF00341C3D2A813086007823D8
:1002400006302A237B234C223518412A782301309B
:100250002A233F082A237B2362223518412AC428F7
:1002600034080139F222C4283030F222C42878231D
:10027000AB302A2300302A2300302A2300302A23DF
:10028000A101A001851A4929A00F4229A10F4229E5
:1002900055290830A00081308600013086000230E8
:1002A000850000308500A00B4B2901308500C42853
:1002B00002304A23F222C42898223518412AA70086
:1002C00098223518412AA80098223518412AA900F9
:1002D000C428341C3D2A98223518412AD83A031DD7
:1002E0003F2A98223518412A063A031D3F2A8130B9
:1002F0008600F00127083923F00A28083923F00A7C
:1003000029083923C42898223518412AAD0098229B
:100310003518412AAE0098223518412AAF00C4286A
:1003200098223518412AB00098223518412AB10088
:1003300098223518412AB200C42898223518412A3B
:10034000FA3A031D3F2A98223518412A993A031D8B
:100350003F2A3414C4283410C428A601A501A401DE
:100360003008A6023108031C310FA5023208031C15
:10037000320FA402782303302A232F082A232E08C1
:100380002A232D082A23CD29A101A001851ECD29CC
:10039000A00FC629A10FC629E829A101A001851A2D
:1003A000D629A00FCF29A10FCF29E8290830A00016
:1003B00091308600013086000230850000308500D3
:1003C000A00BD829A60FC429A50FC429A40FC4299E
:1003D0007B23C428341C3D2A8B223518412A8130C6
:1003E0008600782306302A237B234C223518412AA5
:1003F0007823D8302A2323237B23522362223518E3
:10040000412AC428341C3D2A8B223518412A403009
:10041000B600A030840098223518412A8000840A52
:10042000B60B0B2A81308600782306302A237B23E3
:100430004C22782302302A2323234030B600A030F8
:10044000840000082A23840AB60B212A7B23622217
:10045000782303302A2323234030B600A0308400C1
:100460007A2200083306031D3A2A840AB60B302A82
:100470007B23C4287B230C30422A0230422A0530D9
:10048000422A0A30B700813086005223913086001C
:100490005223B70B432AC428B501A001A1010A3099
:1004A000A200782305302A237A22B318602AA00FED
:1004B000542AA10F542AA20B542A35147B23080076
:1004C0007B23080081308600B501A001A1010A301C
:1004D000A200782305302A237A22331C782AA00F21
:1004E0006C2AA10F6C2AA20B6C2A7B2335140800FE
:1004F0007B230800B3010830A3000310B30D861955
:100500003314023085000000000000308500A30B8A
:100510007D2A33080800982235180800AA0098227E
:1005200035180800AB00982235180800AC00080008
:100530000830A300B501B3010310B30DA001E222FE
:100540003E19A82AA00F9F2A3514FF30B3000800D7
:10055000000000000000000000000000000000009B
:10056000000000000000000000000000000000008B
:10057000000000000000000000000000000000007B
:100580000000D2223E193314A001E2223E1DCE2AE1
:10059000A00FC52A3514FF30B3000800A30B9C2A16
:1005A00033080800BE018618BE0A8618BE0A8618DF
:1005B000BE0A8618BE0A8618BE0A8618BE0A8618A3
:1005C000BE0A0800BE01851ABE0A851ABE0A851A2F
:1005D000BE0A851ABE0A851ABE0A851ABE0A851A7F
:1005E000BE0A0800BA00B5010830A300A101A001AD
:1005F000851EFF2AA00FF82AA10FF82A1F2BA101A0
:10060000A001851A082BA00F012BA10F012B1F2B76
:100610000130BA1B81308600BA0DA30BF62AA10166
:10062000A001851E182BA00F112BA10F112B1F2B22
:100630004030A000A00B1A2B0130860008003514B2
:100640000130860008002C082A232B082A232A08B8
:100650002A230800A0000830A3000030A00D0318D2
:100660000838850002388500023A8500A30B2D2B3F
:100670000800831603139A0070089B001C15553060
:100680009D00AA309D009C149C18442B1C118312C1
:1006900003130800831603139B001C141A0883120B
:1006A000031308000530A2005823A20B542B0800A6
:1006B000A101A0010000A00F5A2BA10F5A2B080086
:1006C000A0010000A00B612B08000530A100A001D3
:1006D0000000A00F682BA10B682B0800A030A10020
:1006E000A00106190800A00F712BA10B712B0800A7
:0C06F00000308500080001308500080083
:02400E00023F6F
:06420000000000000200B6
:00000001FF
