:020000040000FA
:020000000528D1
:08000800090007309F00831678
:100010000313383085000630860083120313003046
:100020004722A70001304722A80002304722A9003A
:100030000030AD000030AE000030AF000030B00046
:10004000F830B100FF30B2000230B800B401013026
:10005000850001308600552285195F28F830A100FF
:10006000A001061D3828A00F3128A10F312899289A
:10007000093086006822013086006822851D2C2800
:10008000380C0339B9004F2206164F220612B90B5D
:1000900043284F22F00100303622F00A0030362289
:1000A000F00A3808362286151030B9004F22B90BF5
:1000B00056288611B80AB80AB81D40285E280610CE
:1000C000552206145522861C6328FE30A4000430F5
:1000D000A5002430A6008501033027222908272205
:1000E0002808272227082722063085008501850059
:1000F00085018500850185008501850085018500D4
:1001000085018500850185008501A60F7528A50F4D
:100110007528A40F75285C220619962801308500E1
:1001200086154F2286114F224F2226280130850046
:100130005C2209303418103886000222883A031DE8
:100140009D2802223308A13A031926283308B83A19
:10015000031915293308373A03191C293308C93AFA
:1001600003194C293308D43A031932293308E23AE7
:10017000031939293308F53A03198A293308983ABB
:100180000319AA293308253A0319402933081F3ACD
:1001900003194A293308533A0319D3283308763A06
:1001A0000319F4289D288501AB302722003027222F
:1001B0000030272200302722A101A001851AE5285E
:1001C000A00FDE28A10FDE28F1280830A000813022
:1001D0008600013086000230850000308500A00BCB
:1001E000E72801308500992802304722BA000830FC
:1001F000A300A101A001851E0229A00FFB28A10FC9
:10020000FB281229A101A001851A0B29A00F04299E
:10021000A10F042912290130BA1B81308600BA0DC2
:10022000A30BF9280130860099280222A700022298
:10023000A8000222A9009928341C9D290222D83A3C
:10024000031D99280222063A031D99288130860051
:10025000F00127083622F00A28083622F00A290879
:10026000362299280222AD000222AE000222AF00FF
:1002700099280222B0000222B1000222B20099287D
:100280000222FA3A031D99280222993A031D99285D
:100290003414992834109928A601A501A401300826
:1002A000A6023108031C310FA5023208031C320FCD
:1002B000A4028501033027222F0827222E08272297
:1002C0002D0827226C29A101A001851E6C29A00FF1
:1002D0006529A10F65298729A101A001851A752922
:1002E000A00F6E29A10F6E2987290830A000813048
:1002F0008600013086000230850000308500A00BAA
:100300007729A60F6329A50F6329A40F632901305C
:1003100085009928341C9D29FB21813086008501A8
:100320000630272201308500CF218501D8302722D1
:10033000202201308500D8219928913086004F2253
:10034000813086004F22913086004F228130860016
:100350004F229928341C9D29FB214030B600A03043
:10036000840002228000840AB60BB1298130860005
:1003700085010630272201308500CF21850102301A
:10038000272220224030B600A03084000008272217
:10039000840AB60BC62901308500D8219928850129
:1003A00005302722ED21B31CD22901308500080039
:1003B000850105302722A101ED21331CEA29A00186
:1003C000A00BE029A10FDC29B70A81303718913042
:1003D0008600DC29013085000800B3010830A30045
:1003E0000310B30D051A3314023085008501A30BE9
:1003F000F029330808000222AA000222AB000222E0
:10040000AC0008000830A300B501B3010310B30D20
:10041000A001851A112AA00F092A3514FF30B30054
:10042000080086183314A001851E1C2AA00F142A68
:100430003514FF30B3000800A30B062A3308080068
:100440002C0827222B0827222A0827220800A00090
:100450000830A3000030A00D03184030850002389A
:100460008500FD398500A30B2A2A08008316031393
:100470009A0070089B001C1555309D00AA309D0005
:100480009C149C18412A1C11831203130800831624
:1004900003139B001C141A08831203130800053071
:1004A000A2005522A20B512A0800A101A001A00F11
:1004B000572AA10F572A0800A001A00B5D2A0800A7
:1004C0000630A100A001A00F632AA10B632A080037
:1004D0008030A100A00106190800A00F6B2AA10F0F
:0404E0006B2A08007B
:02400E00033F6E
:06420000000000000200B6
:00000001FF
