:020000040000FA
:020000000528D1
:08000800090007309F00831678
:100010000313203085004E30860083120313113005
:10002000850021308600DE30BC00FB30BB0043235E
:1000300000301523A70001301523A8000230152336
:10004000A9000030AD000030AE000030AF0000303D
:10005000B000F830B100FF30B2000230B800B40197
:1000600011308500213086002323061B6E28F830CE
:10007000A100A001061D4128A00F3A28A10F3A288F
:10008000C028313086003923213086003923061FED
:1000900035286820380C0739B9001D2306161D23A2
:1000A0000612B90B4D286820061F5D28B80AB80A49
:1000B000381E4A280230B8004A28F00100300423D4
:1000C000F00A00300423F00A3808042306166728D3
:1000D0001430B9001D23B90B6A2808000610232329
:1000E00006142323861C7228FE30A4000430A500C9
:1000F0002430A600103085000330F5222908F522AF
:100100002808F5222708F5221630850010308500D2
:1001100016308500103085001630850010308500BF
:1001200016308500103085001630850010308500AF
:10013000163085001030850016308500103085009F
:100140001630850010308500A60F8428A50F84285E
:10015000A40F84282B230619B52811308500061614
:100160001D2306121D231D232F284B22BB004B22CB
:10017000BC003B05FF3A031D4323113085002B23B0
:10018000313086006322883A031DC2286322330877
:10019000A13A03192F283308B83A0319372933082D
:1001A000373A03193E293308C93A03196E2933082F
:1001B000D43A031954293308E23A03195B29330866
:1001C000F53A0319AD293308983A0319D0293308B1
:1001D000253A0319622933081F3A03196C29330899
:1001E000533A031911293308763A0319332933088E
:1001F0004E3A03190E2933086C3A031908293308BB
:10020000FF3A0319862B3308FE3A0319922BC228B2
:100210006322BB006322BC004323C0282930BD22D7
:10022000C02810308500AB30F5220030F5220030B8
:10023000F5220030F522A101A001851A2429A00F82
:100240001D29A10F1D2930290830A000A1308600EA
:10025000213086001230850010308500A00B262941
:1002600011308500C02802301523BD22C02863222A
:10027000A7006322A8006322A900C028341CC32958
:100280006322D83A031DC0286322063A031DC02802
:10029000A1308600F00127080423F00A280804236F
:1002A000F00A29080423C0286322AD006322AE00AF
:1002B0006322AF00C0286322B0006322B100632232
:1002C000B200C0286322FA3A031DC0286322993A7B
:1002D000031DC0283414C0283410C028A601A5016D
:1002E000A4013008A6023108031C310FA502320810
:1002F000031C320FA402103085000330F5222F08B2
:10030000F5222E08F5222D08F5228F29A101A00142
:10031000851E8F29A00F8829A10F8829AA29A1014C
:10032000A001851A9829A00F9129A10F9129AA2926
:100330000830A000B13086002130860012308500E0
:1003400010308500A00B9A29A60F8629A50F8629B3
:10035000A40F862911308500C028341CC3295C22D3
:10036000A1308600103085000630F522113085005E
:10037000242210308500D830F522EE22113085007D
:1003800032221D23C028A13086001D23B1308600F3
:100390001D23A13086001D23B13086001D23C028F7
:1003A000341CC3295C224030B600A0308400632294
:1003B0003518192A8000840AB60BD729A130860087
:1003C000103085000630F5221130850024221030CF
:1003D00085000230F522EE224030B600A0308400C5
:1003E0000008F522840AB60BF0291130850032226C
:1003F000103085000330F522EE224030B600A030E8
:1004000084004B2200083306031D0C2A840AB60B15
:10041000012A11308500C0280530B700A1308600C0
:100420001D23B13086001D23B70B0E2A1130850025
:10043000C0280A30B700A13086001D23B1308600E5
:100440001D23B70B1B2AC02800000000000000007D
:10045000103085000530F5224B22B31C2C2A1130B8
:1004600085000800A1308600103085000530F52297
:10047000A001A1010A30A2004B22331C482AA00F80
:100480003C2AA10F3C2AA20B3C2A11308500192AD4
:10049000113085000800B3010830A3000310B30D2C
:1004A00086193314123085000000000010308500DA
:1004B000A30B4E2A330808006322AA006322AB0074
:1004C0006322AC0008000830A300B501B30103109B
:1004D000B30DA001AD223E19732AA00F6A2A35146C
:1004E000FF30B30008000000000000000000000022
:1004F00000000000000000000000000000000000FC
:1005000000000000000000000000000000000000EB
:1005100000000000000000009D223E193314A001DD
:10052000AD223E1D992AA00F902A3514FF30B3004A
:100530000800A30B672A33080800BE018618BE0A0C
:100540008618BE0A8618BE0A8618BE0A8618BE0A13
:100550008618BE0A8618BE0A0800BE01851ABE0AA1
:10056000851ABE0A851ABE0A851ABE0A851ABE0AEF
:10057000851ABE0A851ABE0A0800BA00B5010830FD
:10058000A300A101A001851ECA2AA00FC32AA10FA2
:10059000C32AEA2AA101A001851AD32AA00FCC2AD6
:1005A000A10FCC2AEA2A2130BA1BA1308600BA0D4D
:1005B000A30BC12AA101A001851EE32AA00FDC2AFA
:1005C000A10FDC2AEA2A4030A000A00BE52A213046
:1005D0008600080035142130860008002C08F5221A
:1005E0002B08F5222A08F5220800A0000830A300F5
:1005F0001030A00D03180838850002388500023A33
:100600008500A30BF82A0800831603139A007008CC
:100610009B001C1555309D00AA309D009C149C1811
:100620000F2B1C11831203130800831603139B0066
:100630001C141A088312031308000530A200232398
:10064000A20B1F2B0800A101A0010000A00F252B69
:10065000A10F252B0800A0010000A00B2C2B0800E7
:100660000530A100A0010000A00F332BA10B332BFC
:100670000800A030A100A00106190800A00F3C2B23
:10068000A10B3C2B08004C232E3055233C0855234E
:100690003B08552372230800113085002130860065
:1006A00081230130850081230800A0000830A300C9
:1006B0000130860081231130A00D031C013085001C
:1006C0000000000000000000213086008123A30B01
:1006D000582B01308600113085008123213086009F
:1006E000812308000130860081230130850000004D
:1006F00000000000000021308600812311308500B9
:1007000008000A30A100A10B832B08004030B6007E
:10071000A030840063223518192A8000840AB60BA1
:100720008A2BC0284030B600A03084000008BD22CB
:0C0730003518192A840AB60B962BC02835
:02400E00023F6F
:06420000000000000200B6
:00000001FF
